:020000040800F2
:100000002805002001010008071F0008BB1A00088E
:10001000291E0008A9020008812100080000000034
:100020000000000000000000000000000B1F00089E
:100030003704000800000000091F00080D1F000819
:100040001B0100081B0100081B0100081B01000820
:100050001B0100081B0100081B0100081B01000810
:100060001B0100081B0100081B010008F103000828
:100070001B0100081B0100081B0100081B010008F0
:100080001B0100081B0100086D0100081B0100088E
:100090001B0100081B0100081B0100081B010008D0
:1000A0001B0100081B0100081B0100081B010008C0
:1000B0001B010008811F00081B0100081B0100082C
:1000C0001B0100081B0100081B0100081B010008A0
:1000D0001B0100081B0100081B0100081B01000890
:1000E0001B0100081B0100081B010008DFF80CD0F1
:1000F00000F02AF800480047C12100082805002028
:100100000648804706480047FEE7FEE7FEE7FEE7B1
:10011000FEE7FEE7FEE7FEE7FEE7FEE77D1F0008DD
:10012000ED000008D2B201E000F8012B491EFBD21D
:1001300070470022F6E710B513460A4604461946F2
:10014000FFF7F0FF204610BD064C074D06E0E068C3
:1001500040F0010394E8070098471034AC42F6D30E
:10016000FFF7C8FF4022000860220008014800F0A5
:10017000F2B900002C00002070B5044600688168C8
:10018000C943C9071CD1816821F00101816000F0D9
:1001900029FE05460FE000BF00F024FE401B0228A8
:1001A00009D9A06A40F01000A062E06A40F00100A6
:1001B000E062012070BD20688068C043C007EBD0BA
:1001C000002070BD10B50146406A826A12F0500FDF
:1001D00005D0006A026BBDE8104008461047816AEE
:1001E00041F40071816201688968C1F342410729C5
:1001F0000CD1017B51B9816A21F480718162816ADD
:10020000C90403D4816A41F00101816200F0A0F9C0
:1002100010BD10B5406A816A41F040018162C16A37
:1002200041F00401C16200F095F910BD10B5406ABB
:1002300000F08FF910BD0000F8B5002604460096C6
:1002400000688168C943C90728D0816841F001016D
:100250008160134813490068B0FBF1F000E0401ED4
:1002600000900028FBD100F0BDFD054611E000BF65
:1002700000F0B8FD401B02280BD9A06A40F0100026
:10028000A062E06A40F00100E06284F8246001208E
:10029000F8BD20688068C043C007E9D10020F8BDE0
:1002A0002800002040420F00FEE700002DE9F04149
:1002B00004461248016821F470410160016841F46C
:1002C0004051016000220E4D16460127E009C5F895
:1002D000AC016006040EC5F8A871052000F0ACF86A
:1002E000C5F8A861052000F0A7F8521CD2B2082A70
:1002F000ECD3BDE8F04100F045B80000040C01402B
:10030000008021420D4810B5016821F47041016060
:10031000016841F440510160094A0120C2F8AC0172
:10032000C2F8A801052002F5D47200F085F8002477
:100330005460052000F080F8146010BD040C0140EA
:10034000008021420D4810B5016821F47041016020
:10035000016841F440510160094A0020C2F8AC0133
:100360000124C2F8A841052002F5D47200F064F817
:100370005460BDE81040052000F05EB8040C014058
:100380000080214270B5184A0024106820F47040A3
:100390001060106840F440501060144D0126C5F8FC
:1003A000AC61052000F048F8106820F4704010603F
:1003B000106840F400401060C5F8A861052000F006
:1003C0003BF80AE0641CE4B2012000F035F8C82CC8
:1003D00003D9FFF7B7FF012070BDD5F82C01002825
:1003E000F0D1C5F8A80170BD040C01400080214285
:1003F00010B5044800F088FABDE81040024800F04B
:10040000D1BA00002C0000205C00002030B590F82C
:1004100040500124AC40C56B6C6004686360436865
:10042000102B036803D099600068C26030BD9A60E9
:100430000068C16030BD704708B520F06040009092
:1004400000BF0098411E0091FAD208BD72B6FEE7C7
:1004500070470000F8B50024009490F82420254649
:10046000012A12D0012280F824204A681F23072A7B
:100470000DD20668776B521E02EB820293409F43B7
:100480000B6893401F43776319E00220F8BD0668AC
:100490000D2A0AD2376BD21F02EB820293409F4390
:1004A0000B6893401F43376309E0F76A0D3A02EB8C
:1004B000820293409F430B6893401F43F7620A6890
:1004C000072306680A2A0AD3F7680A3A02EB4202AF
:1004D00093409F438B6893401F43F76008E0376960
:1004E00002EB420293409F438B6893401F43376166
:1004F0000A68102A01D0112A20D1124B02689A42B0
:1005000017D193681B0219D4936843F400039360D6
:100510000968102912D10C490C4A0968B1FBF2F1A3
:1005200001EB8101490000E0491E00910029FBD147
:1005300004E0816A41F020018162012480F82450A6
:100540002046F8BD002401402800002040420F0052
:1005500070477047704710B50446006841688906C7
:1005600026D50168890723D5A16AC90603D4A16AE3
:1005700041F40071A1628168C1F34241072910D1A1
:10058000217B71B9416821F020014160A06A20F40B
:100590008070A062A06AC00403D4A06A40F0010089
:1005A000A0622046FFF7D4FF21686FF012000860B8
:1005B0002068416809062ED5016849072BD5A16A34
:1005C000C90603D4A16A41F40051A1628168C1F354
:1005D0000231072909D04168490515D48168C1F362
:1005E0004241072910D1217B71B9416821F0800176
:1005F0004160A06A20F48050A062A06AC00503D4C4
:10060000A06A40F00100A0622046FFF721FF2168A8
:100610006FF00C0008602068416849060DD500683D
:10062000C0070AD0A06A40F48030A062204600F0E3
:1006300093F821686FF00100086010BD2DE9F041CA
:100640004FF0000704003D467ED0A06A002628B97E
:10065000E66284F82460204600F080F82046FFF728
:100660008BFDA16A01F01001014304D0A06A40F0A3
:100670001000A06268E0A16A21F4885141F00201F3
:10068000A1626268E169237B0A4347EA43010A43A6
:10069000A1684FF48077B94208D0012906D0002123
:1006A00094F814C0BCF1010F02D00AE03946F7E714
:1006B000F3B1A36A43F02003A362E36A43F00103AA
:1006C000E3622368D3F804C02CF4694C4CEA010CB3
:1006D000C3F804C023689968DFF870C001EA0C0110
:1006E00011439960A168B9420BD0012909D00CE0EF
:1006F000DFF85CC0A3690CEB43330B4343F40061A8
:10070000DFE7218A0D05A5F580152168CB6A23F462
:1007100070032B43CB62216889680E4B19409142CC
:1007200008D1E662A16A21F0020141F00101A16253
:10073000BDE8F081A06A20F0020040F01000A06245
:10074000E06A40F00100E0620120F1E7FDF7E1FF1F
:1007500000E0FFFFFE0E1FFF7047000070B586B07F
:1007600000250646009501950295039500681E49EF
:10077000884236D11D49886940F4007088618869D3
:1007800000F400700490886940F004008861886972
:10079000694600F0040004900620009003200190B8
:1007A000134800F021FA144C1248C4E900058020D7
:1007B000C4E9025080002061800060612020C4E90B
:1007C0000605204600F098F908B1FFF73FFE3462B5
:1007D000002203211220666200F070FB122000F05C
:1007E0005FFB06B070BD0000002401400010024015
:1007F00000080140080002405C0000202DE9F0479D
:10080000894604463B4900683B4F0E1D904688428E
:1008100001D0B84207D1306810F4702F03D0012501
:100820002846BDE8F08794F8240001280CD0012068
:1008300084F824002046FFF7FFFC05004FF000007D
:1008400004D084F82400EBE70220EAE7A16A40F62E
:100850000162914341F48071A1622168B94218D1CB
:10086000326812F4702F14D0A16A41F48011A16291
:100870003168490505D5A16A21F4005141F4805140
:10088000A162A16AC9040AD5E16A21F00601E16208
:1008900006E0A26A22F48012A2624968E9E7E062F7
:1008A00084F82400216A15488862216A1448C862C5
:1008B000216A1448086321686FF00200086020680C
:1008C000816841F480718160216843464A464C3119
:1008D000206A00F03FF920688168C1F3424107298E
:1008E000816803D041F48011816099E741F4A0014F
:1008F000FAE700000024014000280140C50100087B
:100900002D0200081302000810B5044690F82400D8
:10091000012807D0012084F824002046FFF72CFC92
:1009200010B113E0022010BD21688A6822F48072A1
:100930008A60216A91F82120022A07D1084600F036
:100940000EF8A16A30B141F04001A162002184F8A3
:10095000241010BD21F4885141F00101F5E710B5D4
:1009600090F821100022022905D00421816380F82B
:100970002020012010BD01680B6823F00E030B60DE
:1009800001680B6823F001030B6090F84030C46BE2
:10099000012101FA03F3636080F8211080F8202020
:1009A000104610BD2DE9F05FC16B0C6801680B6843
:1009B000D0F840C0042202FA0CF2494DDFF824A11D
:1009C000494E4A4FDFF828B1DFF828E122422CD007
:1009D0005A072AD50A68920603D40A6822F004024C
:1009E0000A600168A94201D1042219E0514501D1F0
:1009F000402215E0B14202D14FF4806210E0B942CA
:100A000002D14FF480420BE0594502D14FF48022CD
:100A100006E0714502D14FF4800201E04FF08062A0
:100A20002F4908394A60C16A3BE04FF0020808FAD2
:100A30000CF818EA040F4FF000094FF0010235D00E
:100A40005FEA837832D50B689B0605D40B6823F0E8
:100A50000A030B6080F821200168A94201D102221B
:100A600019E0514501D1202215E0B14202D14FF4E5
:100A7000007210E0B94202D14FF400520BE0594528
:100A800002D14FF4003206E0714502D14FF400125A
:100A900001E04FF00072124908394A6080F8209056
:100AA000816A00291AD0BDE8F05F0847082505FAD9
:100AB0000CF5254212D01B0710D50B6823F00E034E
:100AC0000B6090F84010C36B02FA01F15960826329
:100AD00080F8212080F82090016BE2E7BDE8F09FCC
:100AE000080002401C000240300002404400024066
:100AF000580002406C00024030B528B308C81349C2
:100B000014221944B1FBF2F18900C16310498163D9
:100B1000022141771A6843F6F0718A43D0E9001444
:100B20002143D0E902452C43214304692143446910
:100B3000214384692143114319600021416301224B
:100B400042770177084630BD012030BDF8FFFDBF78
:100B50000000024070B5044690F8200000250128EE
:100B60000CD0012084F8200094F821600020012E90
:100B700006D084F820000225284670BD022070BDF2
:100B8000022684F82160A0632068066826F001062A
:100B900006602046FFF73AFCE06A002820680168FA
:100BA00002D041F00E0106E021F00401016020684E
:100BB000016841F00A0101602068016841F001010B
:100BC0000160D9E770B5044600F00CF90546601CD9
:100BD00002D004480078044400F004F9401BA0420D
:100BE000FAD370BD1C0000202DE9F84FDFF8B89152
:100BF000002409F1040A0AF1040B23460F270BF124
:100C0000040EC9E00125A5402A40AA427DD1674EC5
:100C1000D1F804C0ACEB0608B44532D014DCBCF10A
:100C2000030F3AD009DCBCF1000F2AD0BCF1010F50
:100C30001CD0BCF1020F31D11DE0BCF1110F17D057
:100C4000BCF1120F2AD119E0B8F5881F19D006DCC3
:100C5000B8F5803F15D0B8F5801F1FD111E0B8F569
:100C6000001F0ED0B8F5041F18D10AE0CB6815E0BC
:100C7000CB681B1D12E0CB6808330FE0CB680C3348
:100C80000CE08B682BB1012B4FF0080303D04561BA
:100C900004E0042302E0056100E00023FF2A01D8FC
:100CA000064601E000F104064FEA840501D9A5F1EA
:100CB0002005D6F8008007FA05FC28EA0C0803FA9C
:100CC00005F548EA0508C6F800804D68ED0062D5D4
:100CD000374DAE6946F00106AE61AD6924F00306FA
:100CE00005F001050095334D06EB050CDCF80850C6
:100CF000A607360F07FA06F825EA0805DFF8B880D8
:100D0000404503D14FF0000817E044E0DFF8AC8025
:100D1000404502D14FF001080FE0DFF8A4804045C4
:100D200002D14FF0020808E0DFF89880404502D178
:100D30004FF0030801E04FF0040808FA06F848EA0B
:100D40000508CCF808804D68D9F80060ED034D46E1
:100D500001D5164300E096432E604D68DAF8006036
:100D6000AD03554601D5164300E096432E604D680D
:100D7000DBF80060ED025D4601D5164300E09643C6
:100D80002E604D68DEF80060AD02754601D5164351
:100D900000E096432E60641C0D682A46E5407FF40F
:100DA00031AFBDE8F88F00000004014000001110D1
:100DB000001002400000014000080140000C01400A
:100DC0000010014000140140C26821EA02030A40F9
:100DD00043EA0241016170470AB1016170470904A9
:100DE000FBE7000001488068704700001C000020FD
:100DF0000248816802781144816070471C0000201D
:100E0000074810B5016841F010010160032000F0AF
:100E100075F8002000F006F800F024F8002010BD5E
:100E20000020024070B50D4D04464FF47A712878C9
:100E3000B1FBF0F00A490968B1FBF0F000F062FB89
:100E400048B9102C07D200222146501E00F036F877
:100E500000206C6070BD012070BD00001C000020EF
:100E6000280000200C4808B5816941F0010181612A
:100E7000816901F001010091C16941F08051C161B6
:100E8000C06900F0805000900448416821F0E061A2
:100E900041F00071416008BD0010024000000140B7
:100EA000002809DB00F01F02012191404009800069
:100EB00000F1E020C0F8001170470000F0B40E4BC4
:100EC0001B680C46C3F30223C3F10705042D00D9A8
:100ED0000425191D072901D2002300E0DB1E01268D
:100EE00006FA05F1491E214099409E40761E1640A3
:100EF0003143F0BC01F045B90CED00E0064900F0CB
:100F0000070208684FF6FF03184040EA0220034A30
:100F100010430860704700000CED00E00000FA0587
:100F20002DE9F84305460078354CC00754D0E069F8
:100F30000026C00008D4E06940F08050E061E0691C
:100F4000012600F0805000902E480168C90512D497
:100F50000168804641F480710160FFF743FF074656
:100F600005E000BFFFF73EFFC01B642823D8D8F878
:100F70000000C005F6D5206A10F4407021D0A98881
:100F800001F4407181421CD0206A1F49012220F4E3
:100F900040700A6000220A602062C00711D0FFF78B
:100FA00021FF074641F2883808E000BFFFF71AFF2B
:100FB000C11B414502D90320BDE8F883206A8007A0
:100FC000F4D5206A696820F44070084320621EB19D
:100FD000E06920F08050E0612878800705D56068DE
:100FE000A96820F44040084360602878C00605D511
:100FF0006068E96820F48000084360600020DBE757
:101000000010024000700040400442422DE9F047C9
:101010000F46050061D0434E306800F00700B8422B
:1010200009D2306820F0070038433060306800F0A3
:101030000700B84251D128683B4C810712D54007C0
:1010400003D5606840F4E06060602878000703D54D
:10105000606840F4605060606068A96820F0F0004B
:10106000084360602878C00728D06868012810D03D
:101070002168022810D0890700292EDA616821F042
:10108000030101436160FFF7ADFE804641F28839FC
:101090000DE021688903EFE78901EDE7FFF7A2FE84
:1010A000A0EB0801494502D90320BDE8F08760683C
:1010B000696800F00C00B0EB810FEFD1306800F0F0
:1010C0000700B8420BD9306820F007003843306081
:1010D000306800F00700B84201D00120E5E7287829
:1010E000400705D56068E96820F4E0600843606067
:1010F0002878000706D56068296920F4605040EA26
:10110000C100606000F038F86168084AC1F303115B
:10111000515CC8400649086006480068FFF782FE37
:101120000020C2E7002002400010024028220008F0
:101130002800002020000020044805490068496874
:10114000044AC1F30221515CC840704728000020C6
:101150000010024038220008044805490068496828
:10116000044AC1F3C221515CC840704728000020E6
:10117000001002403822000812A185B00FC98DE886
:101180000F0014A0144A006804905168134801F03D
:101190000C03042B10D0082B0ED1C1F38343C903D9
:1011A0001DF803000AD5516804AAC1F34041515CFF
:1011B0000A4A5043B0FBF1F005B070470849484374
:1011C000FAE7000002030405060708090A0B0C0DE4
:1011D0000E0F1010010200000010024000127A00F1
:1011E00000093D002DE9F84F040070D02078C04D73
:1011F000C00749D06868C0F38100012807D068683B
:10120000C0F38100022809D16868C00306D52868A8
:10121000800339D560680028E7D035E06068B0F514
:10122000803F0BD010B1B0F5A02F11D0286820F46A
:1012300080302860286820F4802002E0286840F48C
:1012400080302860606890B1FFF7CCFD06460AE068
:10125000286840F480202860F0E700BFFFF7C2FD57
:10126000801B642873D828688003F7D50CE0FFF74B
:10127000B9FD064605E000BFFFF7B4FD801B6428FA
:10128000F0D828688003F7D420789A4E80074FF072
:1012900001094FF0000839D5686810F00C0F07D02D
:1012A0006868C0F38100022809D16868C00306D4C9
:1012B0002868800714D52069012808D110E020692A
:1012C000B0B1C6F80090FFF78DFD074605E00AE1D2
:1012D000FFF788FDC01B0228C4D828688007F7D50F
:1012E0002868616920F0F80040EAC10028600DE03C
:1012F000C6F80080FFF776FD074604E0FFF772FDB1
:10130000C01B022823D828688007F7D4207800075C
:101310002CD57948A169D9B1C0F80090FFF762FDDA
:10132000074604E0FFF75EFDC01B02280FD8686A7D
:101330008007F7D571484FF4FA510068B0FBF1F01F
:10134000009000BF0098411E0091FAD20EE080E0AC
:10135000C0F80080FFF746FD074604E0FFF742FDB6
:10136000C01B022875D8686A8007F7D42078400728
:1013700060D5E8690027C00008D4E86940F08050D3
:10138000E861E869012700F0805000905C4801683E
:10139000C90513D40168834641F480710160FFF7E9
:1013A00021FD824606E000BFFFF71CFDA0EB0A000E
:1013B00064284ED8DBF80000C005F5D5E0680128A8
:1013C0000AD008B1052813D0286A20F0010028624D
:1013D000286A20F0040002E0286A40F00100286238
:1013E000E06841F2883B98B1FFF7FCFC82460BE0D5
:1013F000286A40F004002862EEE700BFFFF7F2FC25
:10140000A0EB0A0159455AD8286A8007F6D50CE0A6
:10141000FFF7E8FC824605E0FFF7E4FCA0EB0A01D9
:1014200059454CD8286A8007F6D41FB1E86920F0E6
:101430008050E861E06988B36968C1F381010229DD
:1014400044D00228C6F8608004D0FFF7CBFC0446E5
:1014500038E034E0FFF7C6FC074604E0FFF7C2FCC3
:10146000C01B02282BD828688001F7D4206AB0F569
:10147000803F05D16868A16820F4003008436860A7
:10148000D4E908010843696821F4741108436860CD
:10149000C6F86090FFF7A6FC044606E025E000BF12
:1014A000FFF7A0FC001B022809D828688001F7D5A7
:1014B0001BE000BFFFF796FC001B022802D90320A7
:1014C000BDE8F88F28688001F4D40EE00128F7D039
:1014D0006868226A00F48031914204D1616A00F4A4
:1014E0007010884201D00120EAE70020E8E7000000
:1014F00000100240000042428004424228000020C6
:101500000070004010B5401EB0F1807F01D3012073
:1015100010BD4FF0E02460610F21601700F031FE34
:101520000020A06107202061002010BD7047704797
:1015300070B590F83C20012A26D0012480F83C4068
:10154000022280F83D2003685A689D6822F07006E8
:101550000A6832435A600D4B02689A4208D0B2F1D1
:10156000804F05D00A4B9A4202D00A4B9A4204D1CE
:10157000496825F080031943916080F83D400021BF
:1015800080F83C10084670BD022070BD002C014060
:10159000000400400008004010B5040003D094F897
:1015A0003D0010B107E0012010BD002084F83C0090
:1015B000204600F01FF8022084F83D00211D20681D
:1015C00000F0E4FC012084F8460084F83E0084F832
:1015D0003F0084F8400084F8410084F8420084F819
:1015E000430084F8440084F8450084F83D0000205E
:1015F00010BD000008B500680B49884212D10B48A5
:10160000C16941F00201C161C069002200F002001D
:10161000009001211D20FFF751FCBDE808401D206E
:10162000FFF73EBC08BD000000040040001002406F
:1016300090F83D10012901D001207047022180F867
:101640003D100168CA6842F00102CA6000680B4997
:10165000884208D0B0F1804F05D00949884202D0B5
:101660000849884204D1816801F00701062903D0A6
:10167000016841F00101016000207047002C014029
:10168000000400400008004070B5044690F83C009B
:10169000012817D0012584F83C50022084F83D0031
:1016A0002068826822F0770222F47F428260086814
:1016B000502830D00DDC20284DD005DC98B3102800
:1016C0003BD148E0022070BD302844D0402834D1BE
:1016D00039E0602828D0702806D0B0F5805F2CD083
:1016E000B0F5005F29D10AE0CB68D1E9012120687B
:1016F00000F082FC2068816841F0770109E0CB6846
:10170000D1E90121206800F077FC2068816841F46C
:101710008041816011E0CA684968206800F07EFC61
:101720005021206807E016E0CA684968206800F088
:1017300086FC6021206800F069FC84F83D500020A0
:1017400084F83C0070BDCA684968206800F066FCF7
:1017500040212068EFE7226801461046EBE770471A
:1017600070B50446006801694FF00005C943890758
:1017700015D4C168C943890711D4E91E016101204C
:101780002077206880698007204602D0FFF7E7FFB6
:1017900004E000F098F8204600F096F825772068DD
:1017A0000169C943490717D4C168C943490713D41C
:1017B0006FF004010161022020772068806910F435
:1017C000407F204602D0FFF7CAFF04E000F07BF81C
:1017D000204600F079F8257720680169C943090798
:1017E00016D4C168C943090712D46FF0080101611A
:1017F000042020772068C0698007204602D0FFF7C8
:10180000AEFF04E000F05FF8204600F05DF82577B9
:1018100020680169C943C90617D4C168C943C9060C
:1018200013D46FF010010161082020772068C0698F
:1018300010F4407F204602D0FFF791FF04E000F053
:1018400042F8204600F040F8257720680169C94336
:10185000C90708D1C168C943C90704D1891E0161FC
:10186000204600F033F820680169C943090609D40D
:10187000C168C943090605D46FF0800101612046A3
:10188000FFF754FE20680169C943490609D4C168BD
:10189000C943490605D46FF040010161204600F0BC
:1018A00049F820680169C94389060BD4C168C94356
:1018B000890607D46FF0200101612046BDE8704021
:1018C000FFF735BE70BD70477047000010B5144C6F
:1018D000AA202070002060700F20A0710320E0710A
:1018E00000F0A4FA0F480088010AA170E070A4F18A
:1018F00008008088010A217160714FF400510A4884
:10190000FFF762FA0A2308222146084800F07CF813
:10191000A4F10801BDE8104003220548FEF76EBFA0
:10192000080000201000002000100140E800002006
:101930002C000020704770B5040004D094F83900E2
:10194000002510B106E0012070BD84F83850204613
:1019500000F022F8242084F839002068C16821F4BE
:101960000051C160204600F07DFB2068016921F430
:10197000904101612068416921F02A01416120689C
:10198000C16841F40051C160E563202084F839004A
:1019900084F83A00002070BD30B585B00024009472
:1019A00001940294039400681449884224D1144895
:1019B000816941F480418161816901F48041049130
:1019C000816941F00401816180690E4D00F00400DD
:1019D00004904FF4007000900220019003200390C7
:1019E00069462846FFF700F92815CDE90004694645
:1019F00028460294FFF7F8F805B030BD00380140E2
:101A000000100240000801402DE9F843044690F818
:101A100039001F4616460D4620284CD1C5B1BEB12F
:101A200094F83800012846D0012084F838004FF09F
:101A30000008C4F83C80212084F83900FFF7D2F96F
:101A4000A6848146E684A068B0F5805F03D004E0F8
:101A50000120BDE8F883206928B12E465FF000051B
:101A600084F838800EE00026FAE78021204600F056
:101A700055FBA0B9AEB116F8010B21684860E08CA7
:101A8000401EE084E08C4B464FF000020097002897
:101A9000EBD14FF04001204600F040FB30B1032075
:101AA000D7E735F8020BC0F30800E6E7202084F8FA
:101AB00039000020CDE70220CBE7FEE7F0B585B086
:101AC00000242F480094019402940394816941F00A
:101AD00010018161816901F010010491816941F077
:101AE00004018161816901F004010491816941F07F
:101AF000080181618069234E00F008004FF44065C1
:101B00000490002229463046FFF766F91120CDE9FE
:101B1000005001250320CDE9025069463046FFF709
:101B200063F8194EC6F8A851C6F8AC514FF4FA70D4
:101B300006F5D476FFF746F83460746013484168C0
:101B400021F470014160416841F440114160104E40
:101B5000C6F8B4514FF47A77384606F5DA76FFF7CF
:101B600031F834603846FFF72DF835603846FFF716
:101B700029F834603846FFF725F805B0F0BD0000BD
:101B800000100240000C0140008021420010014082
:101B9000000022422DE9F0470C460546FEF7B2FB55
:101BA000D020FEF783FB002857D12846FEF77EFBA6
:101BB000002852D1FEF7A6FBD120FEF777FB0600E6
:101BC0004BD1DFF89CA0A1460024DAF8001021F4E4
:101BD0007041CAF80010DAF8001041F40041CAF868
:101BE0000010204A25460127A0466006040EC2F8D0
:101BF000A8710520FEF720FCD2F82C0108B1641C66
:101C0000E4B2C2F8A8810520FEF716FC6D1CEDB207
:101C1000082DEAD389F800404446C2F8A881DAF8D2
:101C2000001021F47041CAF80010DAF8001041F4F5
:101C30004051CAF80010C2F8AC71022002F5D4720B
:101C4000FEF7FAFB17600520FEF7F6FB146005208F
:101C5000FEF7F2FBFEF776FB3046BDE8F0870000AA
:101C6000040C01400080214270B50C460546FEF789
:101C700049FBD020FEF71AFB00280CD12846FEF7BE
:101C800015FB002807D12046FEF710FB040002D107
:101C9000FEF758FB204670BDFEB5002416480094A0
:101CA000019414490294016089158160012606732C
:101CB0000475022505614FF460214460C161FEF79F
:101CC000BDFC08B1FEF7C2FB0096CDE90164694690
:101CD0000948FEF7BFFB08B1FEF7B8FB009569465F
:101CE00005480195FEF7B6FB002801D0FEF7AEFBD4
:101CF000FEBD0000002401402C000020094808B56A
:101D0000416941F0010141614069002200F0010098
:101D1000009011460B20FFF7D1F8BDE808400B20DA
:101D2000FFF7BEB80010024070B586B0002414481A
:101D30000094019402940394816941F0100181613F
:101D4000816901F010010491816941F00401816110
:101D500080690C4E00F004004FF4005504900022FE
:101D600029463046FFF738F811200095CDE90104E7
:101D70000320039069463046FEF736FF06B070BD7B
:101D8000001002400010014010B586B00024174832
:101D900000940194029403940494134905940160FF
:101DA0000821C0E9011441F28831C0E903148021FF
:101DB0008161FFF7F1FB08B1FEF748FB4FF480505B
:101DC000009069460948FFF75FFC08B1FEF73EFB4B
:101DD000049404A905480594FFF7AAFB002801D044
:101DE000FEF734FB06B010BD00040040A000002048
:101DF0000C4810B50A4901604FF4E13141600021FF
:101E000081600C22C160C0E904128161C161FFF7E9
:101E100092FD002803D0BDE81040FEF717BB10BDAF
:101E200000380140E8000020FEE7000010B53B202C
:101E300000F057F80D4C20803D2000F052F86080F3
:101E40003F2000F04EF8A080432000F04AF8A41D87
:101E50002080452000F045F86080472000F041F8E0
:101E6000A080BDE81040412000F03BB810000020E9
:101E700008B500208DF80000FFF720FE69467520A8
:101E8000FFF788FE002809D19DF8000000F07E00D1
:101E900040088DF80000342801D0012008BD012140
:101EA0006B20FFF7E1FE04211920FFF7DDFE022180
:101EB0001A20FFF7D9FE18211B20FFF7D5FE1021AD
:101EC0001C20FFF7D1FE32213720FFF7CDFE012184
:101ED0003820FFF7C9FE00216A20FFF7C5FE002069
:101EE00008BD1CB504466946FFF754FE641CE0B209
:101EF00001A9FFF74FFE9DF804009DF8001000EBCC
:101F0000012000B21CBDFEE770477047FEF770BFAE
:101F100030B593B028216846FEF70BF914210AA8C2
:101F2000FEF707F9002401200F9402250490009584
:101F30001020119405901094129407946846FFF7AE
:101F400051F908B172B6FEE70F20CDE90A044FF44B
:101F50008060CDE90C4000210AA80E94FFF756F8E6
:101F600008B172B6FEE70FA80F951194FEF7D8FFDF
:101F7000002801D072B6FEE713B030BD70470000F4
:101F80000148FFF7EDBB0000A0000020F0B502689B
:101F9000164B174C174D4FF08047984205D0B8426A
:101FA00003D0A04201D0A84203D122F070064A68B3
:101FB0003243984205D0B84203D0A04201D0A84293
:101FC00003D122F44074CA6822434C6922F0800293
:101FD000224302608A68C2620A688262984201D122
:101FE0000969016301214161F0BD0000002C01403D
:101FF000000400400008004010B5846842EA032253
:1020000024F47F440A432243826010BD826822F098
:1020100070020A4342F007018160704710B5036AFD
:10202000046A24F001040462846924F0F00444EAA0
:10203000021423F00A020A438461026210BD10B543
:10204000036A23F0100303628369046A23F4704374
:1020500043EA023224F0A00343EA011182610162E3
:1020600010BD000070B5044600680169E26821F403
:102070004051114301612169A06808436169084327
:102080002168CA6841F20C639A430243CA6020681F
:102090004169A26921F44071114341611E492068E0
:1020A000884202D1FFF758F801E0FFF745F800EB4E
:1020B000C00101EB0012606864218000B2FBF0F304
:1020C000B3FBF1F36FF018067343B2FBF0F5B2FB0C
:1020D000F0F605EB8305322303EB0515B5FBF1F5AF
:1020E000B6FBF1F605F0F00505EB0615B2FBF0F6D0
:1020F000B2FBF0F0B0FBF1F06FF01802504306EBCA
:10210000800003EB0010B0FBF1F0216800F00F003D
:102110002844886070BD0000003801402DE9F0417E
:10212000984617460E460446069D1DE0681C1BD0C7
:102130002DB1FEF757FEA0EB0800A84214D9206885
:10214000C16821F4D071C1602068416921F00101AA
:102150004161202084F8390084F83A00002084F896
:1021600038000320BDE8F0812068006836EA0000EE
:1021700004D00020B842D9D00020F3E70120F9E7CD
:10218000FEE70907090E002804DB00F1E02080F8D3
:102190000014704700F00F0000F1E02080F8141DDB
:1021A000704702E008C8121F08C1002AFAD1704720
:1021B0007047002001E001C1121F002AFBD17047C7
:1021C000FEF71EFEFFF7A4FEFFF7AEFDFFF796FD3C
:1021D000FFF7DAFDFFF70CFEFFF75EFDFFF748FEA5
:1021E0006420FEF7EFFCFFF721FE6420FEF7EAFC17
:1021F0000A48FFF71DFA6420FEF7E4FC02220849B2
:102200000848FEF7FBFA0648AA21083001700021B1
:1022100041700F2181710321C171FEE7A0000020F0
:10222000000000202C000020000000000000000042
:10223000010203040607080900000000010203046C
:1022400060220008000000202C000000A2210008ED
:102250008C2200082C000020FC040000B2210008A1
:10226000000000000000000000000000000000006E
:10227000000000000000000000000000010000005D
:0C22800010000000000000000024F4002A
:04000005080000ED02
:00000001FF
